:020000020000FC
:040000000C9422003A
:04000C000C94D70376
:040034000C94C8035D
:100040000C94AB030FEF0DBF18E01EBF00E800E8F3
:100050000093610000E00093610001E000936800FC
:1000600006E000936B000FEF0AB900E204B90FE15C
:1000700005B90FE307B901E0009368000FE10093B1
:100080006B0078943F065B4F666D7C077F6F30E0B6
:1000900040E050E060E0F0E0B1E0C0E0D1E02F2EC1
:1000A0003B2E4C2E5D2E80E0F0E0DD2491E0692EA9
:1000B000992E892E7F2EBF2ECF2EEF2EFF2E0E943F
:1000C000A0030E94B7032D37B1F18F30B1F110308A
:1000D00039F11130B1F0123091F1133091F1143047
:1000E00071F0153081F1163041F0173031F01131D7
:1000F00020F4103151F10C9463000C9400010C9425
:10010000E3017112359A71121D9A7112A6B0A4FE04
:10011000349A91E0792E90E1A92E88240C9417034B
:100120008112359A71121D9A7112359AA0E08A2EA9
:1001300077240C942D020C9459020C945F020C94B9
:10014000A7000C9412010C9469030C9407038827F0
:1001500000FE439502FE639501FE4A9503FE6A95F3
:100160009FE0092E6A3061F14A3041F0323050F49C
:100170004030A4F0603094F10C942D023395442764
:100180000C942D02603054F1443021F0403064F082
:100190000C942D0240E030E00C942D02313041F0FF
:1001A00032E043E00C942D0231E049E00C942D0242
:1001B000403014F00C942D0230E049E00C942D02F4
:1001C0005395563018F466270C942D026A3011F0BE
:1001D0000C942D0250E060E00C942D02553061F03B
:1001E000543051F0533041F0523031F0513021F061
:1001F00055E069E00C942D025A9569E00C942D02AB
:1002000010E0D12EA6B1A5FD359A99B197FD4F9A70
:1002100097FDA2E097FD1A2E97FDA0E297FDA8B9E1
:100220000C946300A22DB32DC42DD52D7112A6B050
:10023000A4FE349A7112F6B1F5FF359A91E0792E49
:1002400090E1A92E90E2F92F00FE0C947B0102FEB2
:100250000C94850101FE0C94800103FE0C9489012D
:100260000C9417039FE0092E992D913099F192304B
:10027000B9F1933079F1943081F1953059F196309C
:1002800061F1973039F1983029F1993031F19A3094
:1002900009F19B3011F19C30E9F0BA30A9F0BF3F71
:1002A000A9F0DA3021F16E1699F0962D913281F095
:1002B0009030D9F0C130E9F0D030A9F03B2E2A2E91
:1002C0004C2E5D2E0C9417030C94B0010C94B601C7
:1002D0000C94BC01E0E20C944D01EFE10C944D0153
:1002E000EDE10C944D010C94A2010C94C3010C940B
:1002F0008D010C949301B39563943B2E0C943201C1
:10030000BA956A943B2E0C943201D39593940C9435
:100310003201DA959A940C943201C395DD274C2E64
:100320005D2E0C941703D33031F0DF3F99F04C2E43
:100330005D2E0C941703CC27D1E09D2E4C2E5D2E04
:100340000C941703C1E0D2E09CE0992E4C2E5D2E58
:100350000C941703C0E0D9E04C2E5D2E0C941703CB
:10036000A395BB272A2E3B2E0C941703AA95B9E020
:100370002A2E3B2E0C941703A0E0B1E06B2E2A2E00
:100380003B2E0C941703ED3131F0EF3161F0E03288
:1003900091F00C941703A2E0B8E0DCE16D2E2A2E58
:1003A0003B2E0C941703A3E0B0E0DEE16D2E2A2E65
:1003B0003B2E0C941703A3E0B1E0DFE16D2E2A2E53
:1003C0003B2E0C94170300FEC39402FEF39401FE2F
:1003D000CA9403FEFA949FE0092E9B2DAC2DBE2DEE
:1003E000CF2DAA3051F0CA3061F0AF3F81F0CF3F3E
:1003F000A9F0923030F50C944003B394CC240C94C3
:100400004003E394B53028F5FF240C94400390306A
:1004100061F0BA94A9E0CA2E0C944003B03059F0B0
:10042000EA94C9E0FC2E0C94400392E0A3E0B92EBC
:10043000CA2E0C94400395E0A9E0E92EFA2E0C9404
:100440004003A43010F40C944003BB24CC240C943F
:100450004003EE24FF240C9440030E945502309A7E
:10046000F0E0E4E8E30F94919BB90E945502309AC2
:10047000319AF0E0E4E8E40F94919BB90E945502B0
:10048000319A329AF0E0E4E8E50F94919BB90E942A
:100490005502329A339AF0E0E4E8E60F94919BB962
:1004A0000E945502339A0C94E9027130F1F77727D4
:1004B0000895349A2227D112359A0C9463006395DB
:1004C00088276A3021F0A3E01A2E0C94630053951C
:1004D0006627563011F00C946300439555274A3037
:1004E00021F0323031F00C946300339544270C94A2
:1004F0006300443011F00C946300B32D992D332721
:100500004427B39563949130F9F0923019F1933008
:10051000D9F09430E1F09530B9F09630C1F09730D1
:1005200099F0983089F0993091F09A3069F09B30C9
:1005300071F09C3049F00C9463006D16A9F0BA304C
:1005400061F03B2E0C946300D0E20C949D02DFE13D
:100550000C949D02DDE10C949D02A22DA395B0E0C8
:100560003B2E2A2E0C946300A22DB32DD52DC42D25
:1005700091E0692EAA27B1E0D3959394DA3081F007
:10058000C13031F03B2E2A2E4C2E5D2E0C94630090
:10059000D33070F43B2E2A2E4C2E5D2E0C9463002B
:1005A000C395DD273B2E2A2E4C2E5D2E0C94630026
:1005B000A22DB32DD52DC42DCC27AA27D1E0B1E093
:1005C0009B2E6B2E9B2F3B2E2A2E4C2E5D2E0C9499
:1005D00063009C2DAF2DBB2DCE2D913040F4A1306A
:1005E00030F4B13020F4C13010F40C946300B31631
:1005F00011F00C946300C41611F00C946300E5161E
:1006000011F00C946300F61611F00C9463000130A5
:1006100011F00C946300912D923039F010E199ECB7
:100620009BB99FE098B90C9463000C9463000E94FE
:10063000550220E0309AF0E0E4E8E20D94919BB995
:100640000E945502309A319AF0E0E4E8E30D94916B
:100650009BB90E945502319A329AF0E0E4E8E40D29
:1006600094919BB90E945502329A339AF0E0E4E8E3
:10067000E50D94919BB90E945502339A0C94630046
:100680000E945502309AD12EF0E0E4E8EB0D9491EF
:100690009BB90E945502309A319AF0E0E4E8EC0DE3
:1006A00094919BB90E945502319A329AF0E0E4E8A5
:1006B000EE0D94919BB90E945502329A339AF0E064
:1006C000E4E8EF0D94919BB90E945502339A0C9483
:1006D0006300013021F0A11300E0A113A12F00FE5F
:1006E0000C94960301FE0C949B030130F9F000304A
:1006F00011F10C947B030E945502309A349ACFE397
:10070000CBB90E945502309A319A9BB90E9455028A
:10071000319A329ADBB90E945502329A339A98E0A4
:100720009BB90E945502339A0C94630001E097E351
:10073000D8E00C947B0300E091E7D1E70C947B03B5
:1007400010E014BD15E015BD12EC16BD11E01093BC
:100750006E0010E008951F931FB71F9312EC16BD93
:10076000A89A739523951F911FBF1F9118951BE0A1
:10077000109385001CED10938400112710938000C6
:1007800015E01093810011E010936F0010E00895C0
:100790000F930FB70F930BE0009385000CED0093C0
:1007A0008400B09A83950F910FBF0F911895BF9356
:1007B000FF93FFB7FF93F395CF2FC13030F4D89A52
:1007C000FF91FFBFFF91BF91189503B004FE1395F1
:0E07D000FF27D89AFF91FFBFFF91BF911895A8
:00000001FF
