:020000020000FC
:040000000C9422003A
:04000C000C94D3037A
:040034000C94C40361
:100040000C94A7030FEF0DBF18E01EBF00E800E8F7
:100050000093610000E00093610001E000936800FC
:1000600006E000936B000FEF0AB900E204B90FE15C
:1000700005B90FE307B901E0009368000FE10093B1
:100080006B0078943F065B4F666D7C077F6F30E0B6
:1000900040E050E060E0F0E0B1E0C0E0D1E02F2EC1
:1000A0003B2E4C2E5D2E80E0F0E0DD2491E0692EA9
:1000B000992E892E7F2EBF2ECF2EEF2EFF2E0E943F
:1000C0009C030E94B3032D37B1F18F30B1F1103092
:1000D00039F11130B1F0123091F1133091F1143047
:1000E00071F0153081F1163041F0173031F01131D7
:1000F00020F4103151F10C9463000C94FE000C9428
:10010000E1017112359A71121D9A7112A6B0A4FE06
:10011000349A91E0792E90E1A92E88240C9415034D
:100120008112359A71121D9A7112359AA0E08A2EA9
:1001300077240C942B020C9457020C945D020C94BF
:10014000A7000C9410010C9466030C9405038827F7
:1001500000FE439502FE639501FE4A9503FE6A95F3
:100160009FE0092E6A3051F14A3041F0323050F4AC
:10017000403094F0603084F10C942B023395442786
:100180000C942B02443021F0403064F00C942B028C
:1001900040E030E00C942B02313041F032E043E09B
:1001A0000C942B0231E049E00C942B02403014F007
:1001B0000C942B0230E049E00C942B0253955630FE
:1001C00018F466270C942B026A3011F00C942B0261
:1001D00050E060E00C942B02553061F0543051F047
:1001E000533041F0523031F0513021F055E069E0A8
:1001F0000C942B025A9569E00C942B0210E0D12E3E
:10020000A6B1A5FD359A99B197FD4F9A97FDA2E049
:1002100097FD1A2E97FDA0E297FDA8B90C946300F4
:10022000A22DB32DC42DD52D7112A6B0A4FE349AE3
:100230007112F6B1F5FF359A91E0792E90E1A92E71
:1002400090E2F92F00FE0C94790102FE0C948301D8
:1002500001FE0C947E0103FE0C9487010C9415039F
:100260009FE0092E992D913099F19230B9F1933098
:1002700079F1943081F1953059F1963061F19730F0
:1002800039F1983029F1993031F19A3009F19B30E8
:1002900011F19C30E9F0BA30A9F0BF3FA9F0DA3093
:1002A00021F16E1699F0962D913281F09030D9F0AF
:1002B000C130E9F0D030A9F03B2E2A2E4C2E5D2E15
:1002C0000C9415030C94AE010C94B4010C94BA0177
:1002D000E0E20C944B01EFE10C944B01EDE10C9446
:1002E0004B010C94A0010C94C1010C948B010C9453
:1002F0009101B39563943B2E0C943001BA956A94A6
:100300003B2E0C943001D39593940C943001DA95E4
:100310009A940C943001C395DD274C2E5D2E0C94DD
:100320001503D33031F0DF3F99F04C2E5D2E0C9445
:100330001503CC27D1E09D2E4C2E5D2E0C94150379
:10034000C1E0D2E09CE0992E4C2E5D2E0C9415035A
:10035000C0E0D9E04C2E5D2E0C941503A395BB276D
:100360002A2E3B2E0C941503AA95B9E02A2E3B2E7B
:100370000C941503A0E0B1E06B2E2A2E3B2E0C94BA
:100380001503ED3131F0EF3161F0E03291F00C9472
:100390001503A2E0B8E0DCE16D2E2A2E3B2E0C9472
:1003A0001503A3E0B0E0DEE16D2E2A2E3B2E0C9467
:1003B0001503A3E0B1E0DFE16D2E2A2E3B2E0C9455
:1003C000150300FEC39402FEF39401FECA9403FEDB
:1003D000FA949FE0092E9B2DAC2DBE2DCF2DAA3077
:1003E00051F0CA3061F0AF3F81F0CF3FA9F09230B9
:1003F00030F50C943E03B394CC240C943E03E39468
:10040000B53028F5FF240C943E03903061F0BA9487
:10041000A9E0CA2E0C943E03B03059F0EA94C9E02A
:10042000FC2E0C943E0392E0A3E0B92ECA2E0C944D
:100430003E0395E0A9E0E92EFA2E0C943E03A43089
:1004400010F40C943E03BB24CC240C943E03EE2405
:10045000FF240C943E030E945302309AF0E0E4E83B
:10046000E30F94919BB90E945302309A319AF0E0C5
:10047000E4E8E40F94919BB90E945302319A329AB6
:10048000F0E0E4E8E50F94919BB90E945302329AA0
:10049000339AF0E0E4E8E60F94919BB90E9453028E
:1004A000339A0C94E7027130F1F777270895349A64
:1004B0002227D112359A0C946300639588276A30FD
:1004C00021F0A3E01A2E0C94630053956627563052
:1004D00011F00C946300439555274A3021F03230D7
:1004E00031F00C946300339544270C94630044303E
:1004F00011F00C946300B32D992D33274427B39545
:1005000063949130F9F0923019F19330D9F094302E
:10051000E1F09530B9F09630C1F0973099F098300D
:1005200089F0993091F09A3069F09B3071F09C30ED
:1005300049F00C9463006D16A9F0BA3061F03B2EBF
:100540000C946300D0E20C949B02DFE10C949B02BC
:10055000DDE10C949B02A22DA395B0E03B2E2A2E48
:100560000C946300A22DB32DD52DC42D91E0692EDE
:10057000AA27B1E0D3959394DA3081F0C13031F0FD
:100580003B2E2A2E4C2E5D2E0C946300D33070F43B
:100590003B2E2A2E4C2E5D2E0C946300C395DD2736
:1005A0003B2E2A2E4C2E5D2E0C946300A22DB32DD3
:1005B000D52DC42DCC27AA27D1E0B1E09B2E6B2EE0
:1005C0009B2F3B2E2A2E4C2E5D2E0C9463009C2DCF
:1005D000AF2DBB2DCE2D913040F4A13030F4B13091
:1005E00020F4C13010F40C946300B31611F00C9495
:1005F0006300C41611F00C946300E51611F00C941E
:100600006300F61611F00C946300013011F00C94A5
:100610006300912D923039F010E199EC9BB99FE085
:1006200098B90C9463000C9463000E94530220E07C
:10063000309AF0E0E4E8E20D94919BB90E945302F5
:10064000309A319AF0E0E4E8E30D94919BB90E946E
:100650005302319A329AF0E0E4E8E40D94919BB9A8
:100660000E945302329A339AF0E0E4E8E50D949147
:100670009BB90E945302339A0C9463000E94530268
:10068000309AF0E0E4E8EB0D94919BB90E9453029C
:10069000309A319AF0E0E4E8EC0D94919BB90E9415
:1006A0005302319A329AF0E0E4E8EE0D94919BB94E
:1006B0000E945302329A339AF0E0E4E8EF0D9491ED
:1006C0009BB90E945302339A0C946300013021F0CD
:1006D000A11300E0A113A12F00FE0C94920301FED0
:1006E0000C9497030130F1F0003009F10C94780379
:1006F0000E945302309ACFE3CBB90E945302309A42
:10070000319A9BB90E945302319A329ADBB90E9406
:100710005302329A339A98E09BB90E945302339A5B
:100720000C94630001E097E3D8E00C94780300E0B8
:1007300091E7D1E70C94780310E014BD15E015BDE6
:1007400012EC16BD11E010936E0010E008951F9397
:100750001FB71F9312EC16BDA89A739523951F918E
:100760001FBF1F9118951BE0109385001CED10937F
:10077000840011271093800015E01093810011E090
:1007800010936F0010E008950F930FB70F930BE0D5
:10079000009385000CED00938400B09A83950F912F
:1007A0000FBF0F911895BF93FF93FFB7FF93F3957A
:1007B000CF2FC13030F4D89AFF91FFBFFF91BF9186
:1007C000189503B004FE1395FF27D89AFF91FFBF39
:0607D000FF91BF91189596
:00000001FF
